{
  "contractName": "GameItems",
  "abi": [
    {
      "inputs": [
        {
          "internalType": "address",
          "name": "_trustedForwarder",
          "type": "address"
        }
      ],
      "stateMutability": "nonpayable",
      "type": "constructor"
    },
    {
      "anonymous": false,
      "inputs": [
        {
          "indexed": true,
          "internalType": "address",
          "name": "account",
          "type": "address"
        },
        {
          "indexed": true,
          "internalType": "address",
          "name": "operator",
          "type": "address"
        },
        {
          "indexed": false,
          "internalType": "bool",
          "name": "approved",
          "type": "bool"
        }
      ],
      "name": "ApprovalForAll",
      "type": "event"
    },
    {
      "anonymous": false,
      "inputs": [
        {
          "indexed": true,
          "internalType": "address",
          "name": "recipient",
          "type": "address"
        },
        {
          "indexed": false,
          "internalType": "uint256",
          "name": "MonsterId",
          "type": "uint256"
        },
        {
          "indexed": false,
          "internalType": "string",
          "name": "MonsterName",
          "type": "string"
        }
      ],
      "name": "MonsterCreated",
      "type": "event"
    },
    {
      "anonymous": false,
      "inputs": [
        {
          "indexed": true,
          "internalType": "address",
          "name": "previousOwner",
          "type": "address"
        },
        {
          "indexed": true,
          "internalType": "address",
          "name": "newOwner",
          "type": "address"
        }
      ],
      "name": "OwnershipTransferred",
      "type": "event"
    },
    {
      "anonymous": false,
      "inputs": [
        {
          "indexed": true,
          "internalType": "address",
          "name": "operator",
          "type": "address"
        },
        {
          "indexed": true,
          "internalType": "address",
          "name": "from",
          "type": "address"
        },
        {
          "indexed": true,
          "internalType": "address",
          "name": "to",
          "type": "address"
        },
        {
          "indexed": false,
          "internalType": "uint256[]",
          "name": "ids",
          "type": "uint256[]"
        },
        {
          "indexed": false,
          "internalType": "uint256[]",
          "name": "values",
          "type": "uint256[]"
        }
      ],
      "name": "TransferBatch",
      "type": "event"
    },
    {
      "anonymous": false,
      "inputs": [
        {
          "indexed": true,
          "internalType": "address",
          "name": "operator",
          "type": "address"
        },
        {
          "indexed": true,
          "internalType": "address",
          "name": "from",
          "type": "address"
        },
        {
          "indexed": true,
          "internalType": "address",
          "name": "to",
          "type": "address"
        },
        {
          "indexed": false,
          "internalType": "uint256",
          "name": "id",
          "type": "uint256"
        },
        {
          "indexed": false,
          "internalType": "uint256",
          "name": "value",
          "type": "uint256"
        }
      ],
      "name": "TransferSingle",
      "type": "event"
    },
    {
      "anonymous": false,
      "inputs": [
        {
          "indexed": false,
          "internalType": "string",
          "name": "value",
          "type": "string"
        },
        {
          "indexed": true,
          "internalType": "uint256",
          "name": "id",
          "type": "uint256"
        }
      ],
      "name": "URI",
      "type": "event"
    },
    {
      "inputs": [],
      "name": "GToken",
      "outputs": [
        {
          "internalType": "uint256",
          "name": "",
          "type": "uint256"
        }
      ],
      "stateMutability": "view",
      "type": "function",
      "constant": true
    },
    {
      "inputs": [
        {
          "internalType": "address",
          "name": "account",
          "type": "address"
        },
        {
          "internalType": "uint256",
          "name": "id",
          "type": "uint256"
        }
      ],
      "name": "balanceOf",
      "outputs": [
        {
          "internalType": "uint256",
          "name": "",
          "type": "uint256"
        }
      ],
      "stateMutability": "view",
      "type": "function",
      "constant": true
    },
    {
      "inputs": [
        {
          "internalType": "address[]",
          "name": "accounts",
          "type": "address[]"
        },
        {
          "internalType": "uint256[]",
          "name": "ids",
          "type": "uint256[]"
        }
      ],
      "name": "balanceOfBatch",
      "outputs": [
        {
          "internalType": "uint256[]",
          "name": "",
          "type": "uint256[]"
        }
      ],
      "stateMutability": "view",
      "type": "function",
      "constant": true
    },
    {
      "inputs": [
        {
          "internalType": "address",
          "name": "account",
          "type": "address"
        },
        {
          "internalType": "address",
          "name": "operator",
          "type": "address"
        }
      ],
      "name": "isApprovedForAll",
      "outputs": [
        {
          "internalType": "bool",
          "name": "",
          "type": "bool"
        }
      ],
      "stateMutability": "view",
      "type": "function",
      "constant": true
    },
    {
      "inputs": [
        {
          "internalType": "address",
          "name": "forwarder",
          "type": "address"
        }
      ],
      "name": "isTrustedForwarder",
      "outputs": [
        {
          "internalType": "bool",
          "name": "",
          "type": "bool"
        }
      ],
      "stateMutability": "view",
      "type": "function",
      "constant": true
    },
    {
      "inputs": [],
      "name": "owner",
      "outputs": [
        {
          "internalType": "address",
          "name": "",
          "type": "address"
        }
      ],
      "stateMutability": "view",
      "type": "function",
      "constant": true
    },
    {
      "inputs": [],
      "name": "renounceOwnership",
      "outputs": [],
      "stateMutability": "nonpayable",
      "type": "function"
    },
    {
      "inputs": [
        {
          "internalType": "address",
          "name": "from",
          "type": "address"
        },
        {
          "internalType": "address",
          "name": "to",
          "type": "address"
        },
        {
          "internalType": "uint256[]",
          "name": "ids",
          "type": "uint256[]"
        },
        {
          "internalType": "uint256[]",
          "name": "amounts",
          "type": "uint256[]"
        },
        {
          "internalType": "bytes",
          "name": "data",
          "type": "bytes"
        }
      ],
      "name": "safeBatchTransferFrom",
      "outputs": [],
      "stateMutability": "nonpayable",
      "type": "function"
    },
    {
      "inputs": [
        {
          "internalType": "address",
          "name": "from",
          "type": "address"
        },
        {
          "internalType": "address",
          "name": "to",
          "type": "address"
        },
        {
          "internalType": "uint256",
          "name": "id",
          "type": "uint256"
        },
        {
          "internalType": "uint256",
          "name": "amount",
          "type": "uint256"
        },
        {
          "internalType": "bytes",
          "name": "data",
          "type": "bytes"
        }
      ],
      "name": "safeTransferFrom",
      "outputs": [],
      "stateMutability": "nonpayable",
      "type": "function"
    },
    {
      "inputs": [
        {
          "internalType": "address",
          "name": "operator",
          "type": "address"
        },
        {
          "internalType": "bool",
          "name": "approved",
          "type": "bool"
        }
      ],
      "name": "setApprovalForAll",
      "outputs": [],
      "stateMutability": "nonpayable",
      "type": "function"
    },
    {
      "inputs": [
        {
          "internalType": "bytes4",
          "name": "interfaceId",
          "type": "bytes4"
        }
      ],
      "name": "supportsInterface",
      "outputs": [
        {
          "internalType": "bool",
          "name": "",
          "type": "bool"
        }
      ],
      "stateMutability": "view",
      "type": "function",
      "constant": true
    },
    {
      "inputs": [],
      "name": "totalTokenTypes",
      "outputs": [
        {
          "internalType": "uint256",
          "name": "",
          "type": "uint256"
        }
      ],
      "stateMutability": "view",
      "type": "function",
      "constant": true
    },
    {
      "inputs": [
        {
          "internalType": "address",
          "name": "newOwner",
          "type": "address"
        }
      ],
      "name": "transferOwnership",
      "outputs": [],
      "stateMutability": "nonpayable",
      "type": "function"
    },
    {
      "inputs": [],
      "name": "trustedForwarder",
      "outputs": [
        {
          "internalType": "address",
          "name": "",
          "type": "address"
        }
      ],
      "stateMutability": "view",
      "type": "function",
      "constant": true
    },
    {
      "inputs": [
        {
          "internalType": "uint256",
          "name": "",
          "type": "uint256"
        }
      ],
      "name": "uri",
      "outputs": [
        {
          "internalType": "string",
          "name": "",
          "type": "string"
        }
      ],
      "stateMutability": "view",
      "type": "function",
      "constant": true
    },
    {
      "inputs": [
        {
          "internalType": "address",
          "name": "",
          "type": "address"
        },
        {
          "internalType": "uint256",
          "name": "",
          "type": "uint256"
        }
      ],
      "name": "userMonsters",
      "outputs": [
        {
          "internalType": "uint256",
          "name": "",
          "type": "uint256"
        }
      ],
      "stateMutability": "view",
      "type": "function",
      "constant": true
    },
    {
      "stateMutability": "payable",
      "type": "receive",
      "payable": true
    },
    {
      "inputs": [
        {
          "internalType": "address",
          "name": "recipient",
          "type": "address"
        },
        {
          "internalType": "string",
          "name": "MonsterName",
          "type": "string"
        }
      ],
      "name": "createMonster",
      "outputs": [],
      "stateMutability": "nonpayable",
      "type": "function"
    },
    {
      "inputs": [
        {
          "internalType": "address",
          "name": "user",
          "type": "address"
        }
      ],
      "name": "getUserMonsters",
      "outputs": [
        {
          "internalType": "uint256[]",
          "name": "",
          "type": "uint256[]"
        }
      ],
      "stateMutability": "nonpayable",
      "type": "function"
    },
    {
      "inputs": [
        {
          "internalType": "address",
          "name": "forwarder",
          "type": "address"
        }
      ],
      "name": "setForwarder",
      "outputs": [],
      "stateMutability": "nonpayable",
      "type": "function"
    },
    {
      "inputs": [],
      "name": "versionRecipient",
      "outputs": [
        {
          "internalType": "string",
          "name": "",
          "type": "string"
        }
      ],
      "stateMutability": "view",
      "type": "function",
      "constant": true
    }
  ],
  "bytecode": "0x608060405260016006553480156200001657600080fd5b5060405162003ca438038062003ca4833981810160405260208110156200003c57600080fd5b810190808051906020019092919050505060405180606001604052806028815260200162003c5b602891396200007f6301ffc9a760e01b620001f560201b60201c565b6200009081620002fe60201b60201c565b620000a863d9b67a2660e01b620001f560201b60201c565b620000c0630e89341c60e01b620001f560201b60201c565b506000620000d36200031a60201b60201c565b905080600460006101000a81548173ffffffffffffffffffffffffffffffffffffffff021916908373ffffffffffffffffffffffffffffffffffffffff1602179055508073ffffffffffffffffffffffffffffffffffffffff16600073ffffffffffffffffffffffffffffffffffffffff167f8be0079c531659141344cd1fd0a4f28419497f9722a3daafe3b4186f6b6457e060405160405180910390a35080600560006101000a81548173ffffffffffffffffffffffffffffffffffffffff021916908373ffffffffffffffffffffffffffffffffffffffff160217905550620001ee620001c76200031a60201b60201c565b6000670de0b6b3a7640000604051806020016040528060008152506200033660201b60201c565b5062000bd7565b63ffffffff60e01b817bffffffffffffffffffffffffffffffffffffffffffffffffffffffff1916141562000292576040517f08c379a000000000000000000000000000000000000000000000000000000000815260040180806020018281038252601c8152602001807f4552433136353a20696e76616c696420696e746572666163652069640000000081525060200191505060405180910390fd5b6001600080837bffffffffffffffffffffffffffffffffffffffffffffffffffffffff19167bffffffffffffffffffffffffffffffffffffffffffffffffffffffff1916815260200190815260200160002060006101000a81548160ff02191690831515021790555050565b80600390805190602001906200031692919062000a4f565b5050565b6000620003316200056a60201b620022651760201c565b905090565b600073ffffffffffffffffffffffffffffffffffffffff168473ffffffffffffffffffffffffffffffffffffffff161415620003be576040517f08c379a000000000000000000000000000000000000000000000000000000000815260040180806020018281038252602181526020018062003c836021913960400191505060405180910390fd5b6000620003d06200031a60201b60201c565b90506200040981600087620003eb88620005b260201b60201c565b620003fc88620005b260201b60201c565b876200062560201b60201c565b62000473836001600087815260200190815260200160002060008873ffffffffffffffffffffffffffffffffffffffff1673ffffffffffffffffffffffffffffffffffffffff168152602001908152602001600020546200062d60201b620022a11790919060201c565b6001600086815260200190815260200160002060008773ffffffffffffffffffffffffffffffffffffffff1673ffffffffffffffffffffffffffffffffffffffff168152602001908152602001600020819055508473ffffffffffffffffffffffffffffffffffffffff16600073ffffffffffffffffffffffffffffffffffffffff168273ffffffffffffffffffffffffffffffffffffffff167fc3d58168c5ae7397731d063d5bbf3d657854427343f4c083240f7aacaa2d0f628787604051808381526020018281526020019250505060405180910390a46200056381600087878787620006b660201b60201c565b5050505050565b600060186000369050101580156200058f57506200058e33620009e260201b60201c565b5b15620005a557601436033560601c9050620005ae565b339050620005af565b5b90565b606080600167ffffffffffffffff81118015620005ce57600080fd5b50604051908082528060200260200182016040528015620005fe5781602001602082028036833780820191505090505b50905082816000815181106200061057fe5b60200260200101818152505080915050919050565b505050505050565b600080828401905083811015620006ac576040517f08c379a000000000000000000000000000000000000000000000000000000000815260040180806020018281038252601b8152602001807f536166654d6174683a206164646974696f6e206f766572666c6f77000000000081525060200191505060405180910390fd5b8091505092915050565b620006e28473ffffffffffffffffffffffffffffffffffffffff1662000a3c60201b620023291760201c565b15620009da578373ffffffffffffffffffffffffffffffffffffffff1663f23a6e6187878686866040518663ffffffff1660e01b8152600401808673ffffffffffffffffffffffffffffffffffffffff1681526020018573ffffffffffffffffffffffffffffffffffffffff16815260200184815260200183815260200180602001828103825283818151815260200191508051906020019080838360005b838110156200079e57808201518184015260208101905062000781565b50505050905090810190601f168015620007cc5780820380516001836020036101000a031916815260200191505b509650505050505050602060405180830381600087803b158015620007f057600080fd5b505af19250505080156200082657506040513d60208110156200081257600080fd5b810190808051906020019092919050505060015b62000939576200083562000b13565b80620008425750620008e7565b806040517f08c379a00000000000000000000000000000000000000000000000000000000081526004018080602001828103825283818151815260200191508051906020019080838360005b83811015620008ab5780820151818401526020810190506200088e565b50505050905090810190601f168015620008d95780820380516001836020036101000a031916815260200191505b509250505060405180910390fd5b6040517f08c379a000000000000000000000000000000000000000000000000000000000815260040180806020018281038252603481526020018062003bff6034913960400191505060405180910390fd5b63f23a6e6160e01b7bffffffffffffffffffffffffffffffffffffffffffffffffffffffff1916817bffffffffffffffffffffffffffffffffffffffffffffffffffffffff191614620009d8576040517f08c379a000000000000000000000000000000000000000000000000000000000815260040180806020018281038252602881526020018062003c336028913960400191505060405180910390fd5b505b505050505050565b6000600560009054906101000a900473ffffffffffffffffffffffffffffffffffffffff1673ffffffffffffffffffffffffffffffffffffffff168273ffffffffffffffffffffffffffffffffffffffff16149050919050565b600080823b905060008111915050919050565b828054600181600116156101000203166002900490600052602060002090601f016020900481019282601f1062000a9257805160ff191683800117855562000ac3565b8280016001018555821562000ac3579182015b8281111562000ac257825182559160200191906001019062000aa5565b5b50905062000ad2919062000ad6565b5090565b5b8082111562000af157600081600090555060010162000ad7565b5090565b6000601f19601f8301169050919050565b60008160e01c9050919050565b600060443d101562000b255762000bd4565b60046000803e62000b3860005162000b06565b6308c379a0811462000b4b575062000bd4565b60405160043d036004823e80513d602482011167ffffffffffffffff8211171562000b795750505062000bd4565b808201805167ffffffffffffffff81111562000b9a57505050505062000bd4565b8060208301013d850181111562000bb75750505050505062000bd4565b62000bc28262000af5565b60208401016040528296505050505050505b90565b6130188062000be76000396000f3fe6080604052600436106101225760003560e01c80635ae270aa116100a0578063a22cb46511610064578063a22cb46514610a82578063b9998a2414610adf578063e985e9c514610b30578063f242432a14610bb7578063f2fde38b14610cd357610129565b80635ae270aa14610993578063715018a6146109be5780637da0a877146109d55780638da5cb5b14610a165780638dfde33914610a5757610129565b806347f7e348116100e757806347f7e348146105d9578063486ff0cd1461067f5780634e1273f41461070f578063572b6c05146108bd5780635907ee671461092457610129565b8062fdd58e1461012e5780630127b4cf1461019d57806301ffc9a7146102855780630e89341c146102f55780632eb2c2d6146103a957610129565b3661012957005b600080fd5b34801561013a57600080fd5b506101876004803603604081101561015157600080fd5b81019080803573ffffffffffffffffffffffffffffffffffffffff16906020019092919080359060200190929190505050610d24565b6040518082815260200191505060405180910390f35b3480156101a957600080fd5b50610283600480360360408110156101c057600080fd5b81019080803573ffffffffffffffffffffffffffffffffffffffff169060200190929190803590602001906401000000008111156101fd57600080fd5b82018360208201111561020f57600080fd5b8035906020019184600183028401116401000000008311171561023157600080fd5b91908080601f016020809104026020016040519081016040528093929190818152602001838380828437600081840152601f19601f820116905080830192505050505050509192919290505050610e04565b005b34801561029157600080fd5b506102dd600480360360208110156102a857600080fd5b8101908080357bffffffffffffffffffffffffffffffffffffffffffffffffffffffff1916906020019092919050505061100c565b60405180821515815260200191505060405180910390f35b34801561030157600080fd5b5061032e6004803603602081101561031857600080fd5b8101908080359060200190929190505050611073565b6040518080602001828103825283818151815260200191508051906020019080838360005b8381101561036e578082015181840152602081019050610353565b50505050905090810190601f16801561039b5780820380516001836020036101000a031916815260200191505b509250505060405180910390f35b3480156103b557600080fd5b506105d7600480360360a08110156103cc57600080fd5b81019080803573ffffffffffffffffffffffffffffffffffffffff169060200190929190803573ffffffffffffffffffffffffffffffffffffffff1690602001909291908035906020019064010000000081111561042957600080fd5b82018360208201111561043b57600080fd5b8035906020019184602083028401116401000000008311171561045d57600080fd5b919080806020026020016040519081016040528093929190818152602001838360200280828437600081840152601f19601f820116905080830192505050505050509192919290803590602001906401000000008111156104bd57600080fd5b8201836020820111156104cf57600080fd5b803590602001918460208302840111640100000000831117156104f157600080fd5b919080806020026020016040519081016040528093929190818152602001838360200280828437600081840152601f19601f8201169050808301925050505050505091929192908035906020019064010000000081111561055157600080fd5b82018360208201111561056357600080fd5b8035906020019184600183028401116401000000008311171561058557600080fd5b91908080601f016020809104026020016040519081016040528093929190818152602001838380828437600081840152601f19601f820116905080830192505050505050509192919290505050611117565b005b3480156105e557600080fd5b50610628600480360360208110156105fc57600080fd5b81019080803573ffffffffffffffffffffffffffffffffffffffff1690602001909291905050506115a2565b6040518080602001828103825283818151815260200191508051906020019060200280838360005b8381101561066b578082015181840152602081019050610650565b505050509050019250505060405180910390f35b34801561068b57600080fd5b50610694611639565b6040518080602001828103825283818151815260200191508051906020019080838360005b838110156106d45780820151818401526020810190506106b9565b50505050905090810190601f1680156107015780820380516001836020036101000a031916815260200191505b509250505060405180910390f35b34801561071b57600080fd5b506108666004803603604081101561073257600080fd5b810190808035906020019064010000000081111561074f57600080fd5b82018360208201111561076157600080fd5b8035906020019184602083028401116401000000008311171561078357600080fd5b919080806020026020016040519081016040528093929190818152602001838360200280828437600081840152601f19601f820116905080830192505050505050509192919290803590602001906401000000008111156107e357600080fd5b8201836020820111156107f557600080fd5b8035906020019184602083028401116401000000008311171561081757600080fd5b919080806020026020016040519081016040528093929190818152602001838360200280828437600081840152601f19601f820116905080830192505050505050509192919290505050611676565b6040518080602001828103825283818151815260200191508051906020019060200280838360005b838110156108a957808201518184015260208101905061088e565b505050509050019250505060405180910390f35b3480156108c957600080fd5b5061090c600480360360208110156108e057600080fd5b81019080803573ffffffffffffffffffffffffffffffffffffffff169060200190929190505050611788565b60405180821515815260200191505060405180910390f35b34801561093057600080fd5b5061097d6004803603604081101561094757600080fd5b81019080803573ffffffffffffffffffffffffffffffffffffffff169060200190929190803590602001909291905050506117e2565b6040518082815260200191505060405180910390f35b34801561099f57600080fd5b506109a8611810565b6040518082815260200191505060405180910390f35b3480156109ca57600080fd5b506109d3611815565b005b3480156109e157600080fd5b506109ea611985565b604051808273ffffffffffffffffffffffffffffffffffffffff16815260200191505060405180910390f35b348015610a2257600080fd5b50610a2b6119ab565b604051808273ffffffffffffffffffffffffffffffffffffffff16815260200191505060405180910390f35b348015610a6357600080fd5b50610a6c6119d5565b6040518082815260200191505060405180910390f35b348015610a8e57600080fd5b50610add60048036036040811015610aa557600080fd5b81019080803573ffffffffffffffffffffffffffffffffffffffff1690602001909291908035151590602001909291905050506119db565b005b348015610aeb57600080fd5b50610b2e60048036036020811015610b0257600080fd5b81019080803573ffffffffffffffffffffffffffffffffffffffff169060200190929190505050611b74565b005b348015610b3c57600080fd5b50610b9f60048036036040811015610b5357600080fd5b81019080803573ffffffffffffffffffffffffffffffffffffffff169060200190929190803573ffffffffffffffffffffffffffffffffffffffff169060200190929190505050611c67565b60405180821515815260200191505060405180910390f35b348015610bc357600080fd5b50610cd1600480360360a0811015610bda57600080fd5b81019080803573ffffffffffffffffffffffffffffffffffffffff169060200190929190803573ffffffffffffffffffffffffffffffffffffffff169060200190929190803590602001909291908035906020019092919080359060200190640100000000811115610c4b57600080fd5b820183602082011115610c5d57600080fd5b80359060200191846001830284011164010000000083111715610c7f57600080fd5b91908080601f016020809104026020016040519081016040528093929190818152602001838380828437600081840152601f19601f820116905080830192505050505050509192919290505050611cfb565b005b348015610cdf57600080fd5b50610d2260048036036020811015610cf657600080fd5b81019080803573ffffffffffffffffffffffffffffffffffffffff169060200190929190505050612070565b005b60008073ffffffffffffffffffffffffffffffffffffffff168373ffffffffffffffffffffffffffffffffffffffff161415610dab576040517f08c379a000000000000000000000000000000000000000000000000000000000815260040180806020018281038252602b815260200180612e4d602b913960400191505060405180910390fd5b6001600083815260200190815260200160002060008473ffffffffffffffffffffffffffffffffffffffff1673ffffffffffffffffffffffffffffffffffffffff16815260200190815260200160002054905092915050565b610e0c61233c565b73ffffffffffffffffffffffffffffffffffffffff16610e2a6119ab565b73ffffffffffffffffffffffffffffffffffffffff1614610eb3576040517f08c379a00000000000000000000000000000000000000000000000000000000081526004018080602001828103825260208152602001807f4f776e61626c653a2063616c6c6572206973206e6f7420746865206f776e657281525060200191505060405180910390fd5b610ed18260065460016040518060200160405280600081525061234b565b600760008373ffffffffffffffffffffffffffffffffffffffff1673ffffffffffffffffffffffffffffffffffffffff16815260200190815260200160002060065490806001815401808255809150506001900390600052602060002001600090919091909150558173ffffffffffffffffffffffffffffffffffffffff167f8fc37173f46335c639ee1382c96da02463a11e759d89d791894a32c75b8880db600654836040518083815260200180602001828103825283818151815260200191508051906020019080838360005b83811015610fbb578082015181840152602081019050610fa0565b50505050905090810190601f168015610fe85780820380516001836020036101000a031916815260200191505b50935050505060405180910390a26006600081548092919060010191905055505050565b6000806000837bffffffffffffffffffffffffffffffffffffffffffffffffffffffff19167bffffffffffffffffffffffffffffffffffffffffffffffffffffffff1916815260200190815260200160002060009054906101000a900460ff169050919050565b606060038054600181600116156101000203166002900480601f01602080910402602001604051908101604052809291908181526020018280546001816001161561010002031660029004801561110b5780601f106110e05761010080835404028352916020019161110b565b820191906000526020600020905b8154815290600101906020018083116110ee57829003601f168201915b50505050509050919050565b8151835114611171576040517f08c379a0000000000000000000000000000000000000000000000000000000008152600401808060200182810382526028815260200180612f9a6028913960400191505060405180910390fd5b600073ffffffffffffffffffffffffffffffffffffffff168473ffffffffffffffffffffffffffffffffffffffff1614156111f7576040517f08c379a0000000000000000000000000000000000000000000000000000000008152600401808060200182810382526025815260200180612ec76025913960400191505060405180910390fd5b6111ff61233c565b73ffffffffffffffffffffffffffffffffffffffff168573ffffffffffffffffffffffffffffffffffffffff16148061124557506112448561123f61233c565b611c67565b5b61129a576040517f08c379a0000000000000000000000000000000000000000000000000000000008152600401808060200182810382526032815260200180612eec6032913960400191505060405180910390fd5b60006112a461233c565b90506112b481878787878761254e565b60005b84518110156114855760008582815181106112ce57fe5b6020026020010151905060008583815181106112e657fe5b6020026020010151905061136d816040518060600160405280602a8152602001612f1e602a91396001600086815260200190815260200160002060008d73ffffffffffffffffffffffffffffffffffffffff1673ffffffffffffffffffffffffffffffffffffffff168152602001908152602001600020546125569092919063ffffffff16565b6001600084815260200190815260200160002060008b73ffffffffffffffffffffffffffffffffffffffff1673ffffffffffffffffffffffffffffffffffffffff16815260200190815260200160002081905550611424816001600085815260200190815260200160002060008b73ffffffffffffffffffffffffffffffffffffffff1673ffffffffffffffffffffffffffffffffffffffff168152602001908152602001600020546122a190919063ffffffff16565b6001600084815260200190815260200160002060008a73ffffffffffffffffffffffffffffffffffffffff1673ffffffffffffffffffffffffffffffffffffffff1681526020019081526020016000208190555050508060010190506112b7565b508473ffffffffffffffffffffffffffffffffffffffff168673ffffffffffffffffffffffffffffffffffffffff168273ffffffffffffffffffffffffffffffffffffffff167f4a39dc06d4c0dbc64b70af90fd698a233a518aa5d07e595d983b8c0526c8f7fb8787604051808060200180602001838103835285818151815260200191508051906020019060200280838360005b8381101561153557808201518184015260208101905061151a565b50505050905001838103825284818151815260200191508051906020019060200280838360005b8381101561157757808201518184015260208101905061155c565b5050505090500194505050505060405180910390a461159a818787878787612610565b505050505050565b6060600760008373ffffffffffffffffffffffffffffffffffffffff1673ffffffffffffffffffffffffffffffffffffffff16815260200190815260200160002080548060200260200160405190810160405280929190818152602001828054801561162d57602002820191906000526020600020905b815481526020019060010190808311611619575b50505050509050919050565b60606040518060400160405280600181526020017f3100000000000000000000000000000000000000000000000000000000000000815250905090565b606081518351146116d2576040517f08c379a0000000000000000000000000000000000000000000000000000000008152600401808060200182810382526029815260200180612f716029913960400191505060405180910390fd5b6060835167ffffffffffffffff811180156116ec57600080fd5b5060405190808252806020026020018201604052801561171b5781602001602082028036833780820191505090505b50905060005b845181101561177d5761175a85828151811061173957fe5b602002602001015185838151811061174d57fe5b6020026020010151610d24565b82828151811061176657fe5b602002602001018181525050806001019050611721565b508091505092915050565b6000600560009054906101000a900473ffffffffffffffffffffffffffffffffffffffff1673ffffffffffffffffffffffffffffffffffffffff168273ffffffffffffffffffffffffffffffffffffffff16149050919050565b600760205281600052604060002081815481106117fb57fe5b90600052602060002001600091509150505481565b600081565b61181d61233c565b73ffffffffffffffffffffffffffffffffffffffff1661183b6119ab565b73ffffffffffffffffffffffffffffffffffffffff16146118c4576040517f08c379a00000000000000000000000000000000000000000000000000000000081526004018080602001828103825260208152602001807f4f776e61626c653a2063616c6c6572206973206e6f7420746865206f776e657281525060200191505060405180910390fd5b600073ffffffffffffffffffffffffffffffffffffffff16600460009054906101000a900473ffffffffffffffffffffffffffffffffffffffff1673ffffffffffffffffffffffffffffffffffffffff167f8be0079c531659141344cd1fd0a4f28419497f9722a3daafe3b4186f6b6457e060405160405180910390a36000600460006101000a81548173ffffffffffffffffffffffffffffffffffffffff021916908373ffffffffffffffffffffffffffffffffffffffff160217905550565b600560009054906101000a900473ffffffffffffffffffffffffffffffffffffffff1681565b6000600460009054906101000a900473ffffffffffffffffffffffffffffffffffffffff16905090565b60065481565b8173ffffffffffffffffffffffffffffffffffffffff166119fa61233c565b73ffffffffffffffffffffffffffffffffffffffff161415611a67576040517f08c379a0000000000000000000000000000000000000000000000000000000008152600401808060200182810382526029815260200180612f486029913960400191505060405180910390fd5b8060026000611a7461233c565b73ffffffffffffffffffffffffffffffffffffffff1673ffffffffffffffffffffffffffffffffffffffff16815260200190815260200160002060008473ffffffffffffffffffffffffffffffffffffffff1673ffffffffffffffffffffffffffffffffffffffff16815260200190815260200160002060006101000a81548160ff0219169083151502179055508173ffffffffffffffffffffffffffffffffffffffff16611b2161233c565b73ffffffffffffffffffffffffffffffffffffffff167f17307eab39ab6107e8899845ad3d59bd9653f200f220920489ca2b5937696c318360405180821515815260200191505060405180910390a35050565b611b7c61233c565b73ffffffffffffffffffffffffffffffffffffffff16611b9a6119ab565b73ffffffffffffffffffffffffffffffffffffffff1614611c23576040517f08c379a00000000000000000000000000000000000000000000000000000000081526004018080602001828103825260208152602001807f4f776e61626c653a2063616c6c6572206973206e6f7420746865206f776e657281525060200191505060405180910390fd5b80600560006101000a81548173ffffffffffffffffffffffffffffffffffffffff021916908373ffffffffffffffffffffffffffffffffffffffff16021790555050565b6000600260008473ffffffffffffffffffffffffffffffffffffffff1673ffffffffffffffffffffffffffffffffffffffff16815260200190815260200160002060008373ffffffffffffffffffffffffffffffffffffffff1673ffffffffffffffffffffffffffffffffffffffff16815260200190815260200160002060009054906101000a900460ff16905092915050565b600073ffffffffffffffffffffffffffffffffffffffff168473ffffffffffffffffffffffffffffffffffffffff161415611d81576040517f08c379a0000000000000000000000000000000000000000000000000000000008152600401808060200182810382526025815260200180612ec76025913960400191505060405180910390fd5b611d8961233c565b73ffffffffffffffffffffffffffffffffffffffff168573ffffffffffffffffffffffffffffffffffffffff161480611dcf5750611dce85611dc961233c565b611c67565b5b611e24576040517f08c379a0000000000000000000000000000000000000000000000000000000008152600401808060200182810382526029815260200180612e9e6029913960400191505060405180910390fd5b6000611e2e61233c565b9050611e4e818787611e3f8861299f565b611e488861299f565b8761254e565b611ecb836040518060600160405280602a8152602001612f1e602a91396001600088815260200190815260200160002060008a73ffffffffffffffffffffffffffffffffffffffff1673ffffffffffffffffffffffffffffffffffffffff168152602001908152602001600020546125569092919063ffffffff16565b6001600086815260200190815260200160002060008873ffffffffffffffffffffffffffffffffffffffff1673ffffffffffffffffffffffffffffffffffffffff16815260200190815260200160002081905550611f82836001600087815260200190815260200160002060008873ffffffffffffffffffffffffffffffffffffffff1673ffffffffffffffffffffffffffffffffffffffff168152602001908152602001600020546122a190919063ffffffff16565b6001600086815260200190815260200160002060008773ffffffffffffffffffffffffffffffffffffffff1673ffffffffffffffffffffffffffffffffffffffff168152602001908152602001600020819055508473ffffffffffffffffffffffffffffffffffffffff168673ffffffffffffffffffffffffffffffffffffffff168273ffffffffffffffffffffffffffffffffffffffff167fc3d58168c5ae7397731d063d5bbf3d657854427343f4c083240f7aacaa2d0f628787604051808381526020018281526020019250505060405180910390a4612068818787878787612a0f565b505050505050565b61207861233c565b73ffffffffffffffffffffffffffffffffffffffff166120966119ab565b73ffffffffffffffffffffffffffffffffffffffff161461211f576040517f08c379a00000000000000000000000000000000000000000000000000000000081526004018080602001828103825260208152602001807f4f776e61626c653a2063616c6c6572206973206e6f7420746865206f776e657281525060200191505060405180910390fd5b600073ffffffffffffffffffffffffffffffffffffffff168173ffffffffffffffffffffffffffffffffffffffff1614156121a5576040517f08c379a0000000000000000000000000000000000000000000000000000000008152600401808060200182810382526026815260200180612e786026913960400191505060405180910390fd5b8073ffffffffffffffffffffffffffffffffffffffff16600460009054906101000a900473ffffffffffffffffffffffffffffffffffffffff1673ffffffffffffffffffffffffffffffffffffffff167f8be0079c531659141344cd1fd0a4f28419497f9722a3daafe3b4186f6b6457e060405160405180910390a380600460006101000a81548173ffffffffffffffffffffffffffffffffffffffff021916908373ffffffffffffffffffffffffffffffffffffffff16021790555050565b60006018600036905010158015612281575061228033611788565b5b1561229557601436033560601c905061229d565b33905061229e565b5b90565b60008082840190508381101561231f576040517f08c379a000000000000000000000000000000000000000000000000000000000815260040180806020018281038252601b8152602001807f536166654d6174683a206164646974696f6e206f766572666c6f77000000000081525060200191505060405180910390fd5b8091505092915050565b600080823b905060008111915050919050565b6000612346612265565b905090565b600073ffffffffffffffffffffffffffffffffffffffff168473ffffffffffffffffffffffffffffffffffffffff1614156123d1576040517f08c379a0000000000000000000000000000000000000000000000000000000008152600401808060200182810382526021815260200180612fc26021913960400191505060405180910390fd5b60006123db61233c565b90506123fc816000876123ed8861299f565b6123f68861299f565b8761254e565b61245f836001600087815260200190815260200160002060008873ffffffffffffffffffffffffffffffffffffffff1673ffffffffffffffffffffffffffffffffffffffff168152602001908152602001600020546122a190919063ffffffff16565b6001600086815260200190815260200160002060008773ffffffffffffffffffffffffffffffffffffffff1673ffffffffffffffffffffffffffffffffffffffff168152602001908152602001600020819055508473ffffffffffffffffffffffffffffffffffffffff16600073ffffffffffffffffffffffffffffffffffffffff168273ffffffffffffffffffffffffffffffffffffffff167fc3d58168c5ae7397731d063d5bbf3d657854427343f4c083240f7aacaa2d0f628787604051808381526020018281526020019250505060405180910390a461254781600087878787612a0f565b5050505050565b505050505050565b6000838311158290612603576040517f08c379a00000000000000000000000000000000000000000000000000000000081526004018080602001828103825283818151815260200191508051906020019080838360005b838110156125c85780820151818401526020810190506125ad565b50505050905090810190601f1680156125f55780820380516001836020036101000a031916815260200191505b509250505060405180910390fd5b5082840390509392505050565b61262f8473ffffffffffffffffffffffffffffffffffffffff16612329565b15612997578373ffffffffffffffffffffffffffffffffffffffff1663bc197c8187878686866040518663ffffffff1660e01b8152600401808673ffffffffffffffffffffffffffffffffffffffff1681526020018573ffffffffffffffffffffffffffffffffffffffff168152602001806020018060200180602001848103845287818151815260200191508051906020019060200280838360005b838110156126e75780820151818401526020810190506126cc565b50505050905001848103835286818151815260200191508051906020019060200280838360005b8381101561272957808201518184015260208101905061270e565b50505050905001848103825285818151815260200191508051906020019080838360005b8381101561276857808201518184015260208101905061274d565b50505050905090810190601f1680156127955780820380516001836020036101000a031916815260200191505b5098505050505050505050602060405180830381600087803b1580156127ba57600080fd5b505af19250505080156127ee57506040513d60208110156127da57600080fd5b810190808051906020019092919050505060015b6128f8576127fa612d3a565b8061280557506128a7565b806040517f08c379a00000000000000000000000000000000000000000000000000000000081526004018080602001828103825283818151815260200191508051906020019080838360005b8381101561286c578082015181840152602081019050612851565b50505050905090810190601f1680156128995780820380516001836020036101000a031916815260200191505b509250505060405180910390fd5b6040517f08c379a0000000000000000000000000000000000000000000000000000000008152600401808060200182810382526034815260200180612df16034913960400191505060405180910390fd5b63bc197c8160e01b7bffffffffffffffffffffffffffffffffffffffffffffffffffffffff1916817bffffffffffffffffffffffffffffffffffffffffffffffffffffffff191614612995576040517f08c379a0000000000000000000000000000000000000000000000000000000008152600401808060200182810382526028815260200180612e256028913960400191505060405180910390fd5b505b505050505050565b606080600167ffffffffffffffff811180156129ba57600080fd5b506040519080825280602002602001820160405280156129e95781602001602082028036833780820191505090505b50905082816000815181106129fa57fe5b60200260200101818152505080915050919050565b612a2e8473ffffffffffffffffffffffffffffffffffffffff16612329565b15612d14578373ffffffffffffffffffffffffffffffffffffffff1663f23a6e6187878686866040518663ffffffff1660e01b8152600401808673ffffffffffffffffffffffffffffffffffffffff1681526020018573ffffffffffffffffffffffffffffffffffffffff16815260200184815260200183815260200180602001828103825283818151815260200191508051906020019080838360005b83811015612ae7578082015181840152602081019050612acc565b50505050905090810190601f168015612b145780820380516001836020036101000a031916815260200191505b509650505050505050602060405180830381600087803b158015612b3757600080fd5b505af1925050508015612b6b57506040513d6020811015612b5757600080fd5b810190808051906020019092919050505060015b612c7557612b77612d3a565b80612b825750612c24565b806040517f08c379a00000000000000000000000000000000000000000000000000000000081526004018080602001828103825283818151815260200191508051906020019080838360005b83811015612be9578082015181840152602081019050612bce565b50505050905090810190601f168015612c165780820380516001836020036101000a031916815260200191505b509250505060405180910390fd5b6040517f08c379a0000000000000000000000000000000000000000000000000000000008152600401808060200182810382526034815260200180612df16034913960400191505060405180910390fd5b63f23a6e6160e01b7bffffffffffffffffffffffffffffffffffffffffffffffffffffffff1916817bffffffffffffffffffffffffffffffffffffffffffffffffffffffff191614612d12576040517f08c379a0000000000000000000000000000000000000000000000000000000008152600401808060200182810382526028815260200180612e256028913960400191505060405180910390fd5b505b505050505050565b6000601f19601f8301169050919050565b60008160e01c9050919050565b600060443d1015612d4a57612ded565b60046000803e612d5b600051612d2d565b6308c379a08114612d6c5750612ded565b60405160043d036004823e80513d602482011167ffffffffffffffff82111715612d9857505050612ded565b808201805167ffffffffffffffff811115612db7575050505050612ded565b8060208301013d8501811115612dd257505050505050612ded565b612ddb82612d1c565b60208401016040528296505050505050505b9056fe455243313135353a207472616e7366657220746f206e6f6e2045524331313535526563656976657220696d706c656d656e746572455243313135353a204552433131353552656365697665722072656a656374656420746f6b656e73455243313135353a2062616c616e636520717565727920666f7220746865207a65726f20616464726573734f776e61626c653a206e6577206f776e657220697320746865207a65726f2061646472657373455243313135353a2063616c6c6572206973206e6f74206f776e6572206e6f7220617070726f766564455243313135353a207472616e7366657220746f20746865207a65726f2061646472657373455243313135353a207472616e736665722063616c6c6572206973206e6f74206f776e6572206e6f7220617070726f766564455243313135353a20696e73756666696369656e742062616c616e636520666f72207472616e73666572455243313135353a2073657474696e6720617070726f76616c2073746174757320666f722073656c66455243313135353a206163636f756e747320616e6420696473206c656e677468206d69736d61746368455243313135353a2069647320616e6420616d6f756e7473206c656e677468206d69736d61746368455243313135353a206d696e7420746f20746865207a65726f2061646472657373a26469706673582212203556e490123a89955154f963ccd963e9dd7fbd501c8d655b205e55ad72d6d90e64736f6c634300060c0033455243313135353a207472616e7366657220746f206e6f6e2045524331313535526563656976657220696d706c656d656e746572455243313135353a204552433131353552656365697665722072656a656374656420746f6b656e7368747470733a2f2f646d6f6e2d6170692e6865726f6b756170702e636f6d2f6974656d2f7b69647d455243313135353a206d696e7420746f20746865207a65726f2061646472657373",
  "immutableReferences": {},
  "source": "// SPDX-License-Identifier: MIT\r\npragma solidity >=0.4.22 <0.9.0;\r\n\r\nimport \"@openzeppelin/contracts/access/Ownable.sol\";\r\nimport \"@openzeppelin/contracts/token/ERC1155/ERC1155.sol\";\r\nimport \"@opengsn/gsn/contracts/BaseRelayRecipient.sol\";\r\n\r\n\r\ncontract GameItems is ERC1155, Ownable, BaseRelayRecipient {\r\n    uint public constant GToken = 0;\r\n    uint public totalTokenTypes = 1;\r\n\r\n    mapping (address => uint[]) public userMonsters;\r\n\r\n    event MonsterCreated(address indexed recipient, uint MonsterId, string MonsterName);\r\n\r\n    constructor(address _trustedForwarder) public ERC1155(\"https://dmon-api.herokuapp.com/item/{id}\") {\r\n        trustedForwarder = _trustedForwarder;\r\n        _mint(_msgSender(), GToken, 10 ** 18, \"\");\r\n    }\r\n\r\n    function createMonster(address recipient, string memory MonsterName) public onlyOwner {\r\n        _mint(recipient, totalTokenTypes, 1, \"\");\r\n        userMonsters[recipient].push(totalTokenTypes);\r\n        emit MonsterCreated(recipient, totalTokenTypes, MonsterName);\r\n        totalTokenTypes++;\r\n    }\r\n\r\n    function getUserMonsters(address user) public returns(uint[] memory) {\r\n        return userMonsters[user];\r\n    }\r\n\r\n    function _msgSender() internal override(Context, BaseRelayRecipient)\r\n    view returns (address payable) {\r\n        return BaseRelayRecipient._msgSender();\r\n    }\r\n\r\n    function _msgData() internal override(Context, BaseRelayRecipient)\r\n    view returns (bytes memory ret) {\r\n        return BaseRelayRecipient._msgData();\r\n    }\r\n\r\n\r\n    function setForwarder(address forwarder) public onlyOwner {\r\n        trustedForwarder = forwarder;\r\n    }\r\n\r\n    function versionRecipient() external virtual override view returns (string memory){return \"1\";}\r\n\r\n    receive() external payable {}\r\n}\r\n",
  "sourcePath": "C:/Users/Root/Documents/my_ethereum/Dmon/contracts/GameItems.sol",
  "compiler": {
    "name": "solc",
    "version": "0.6.12+commit.27d51765.Emscripten.clang"
  },
  "schemaVersion": "3.3.3",
  "updatedAt": "2021-02-28T13:29:30.280Z",
  "networkType": "ethereum",
  "devdoc": {
    "kind": "dev",
    "methods": {
      "balanceOf(address,uint256)": {
        "details": "See {IERC1155-balanceOf}. Requirements: - `account` cannot be the zero address."
      },
      "balanceOfBatch(address[],uint256[])": {
        "details": "See {IERC1155-balanceOfBatch}. Requirements: - `accounts` and `ids` must have the same length."
      },
      "isApprovedForAll(address,address)": {
        "details": "See {IERC1155-isApprovedForAll}."
      },
      "owner()": {
        "details": "Returns the address of the current owner."
      },
      "renounceOwnership()": {
        "details": "Leaves the contract without owner. It will not be possible to call `onlyOwner` functions anymore. Can only be called by the current owner. NOTE: Renouncing ownership will leave the contract without an owner, thereby removing any functionality that is only available to the owner."
      },
      "safeBatchTransferFrom(address,address,uint256[],uint256[],bytes)": {
        "details": "See {IERC1155-safeBatchTransferFrom}."
      },
      "safeTransferFrom(address,address,uint256,uint256,bytes)": {
        "details": "See {IERC1155-safeTransferFrom}."
      },
      "setApprovalForAll(address,bool)": {
        "details": "See {IERC1155-setApprovalForAll}."
      },
      "supportsInterface(bytes4)": {
        "details": "See {IERC165-supportsInterface}. Time complexity O(1), guaranteed to always use less than 30 000 gas."
      },
      "transferOwnership(address)": {
        "details": "Transfers ownership of the contract to a new account (`newOwner`). Can only be called by the current owner."
      },
      "uri(uint256)": {
        "details": "See {IERC1155MetadataURI-uri}. This implementation returns the same URI for *all* token types. It relies on the token type ID substitution mechanism https://eips.ethereum.org/EIPS/eip-1155#metadata[defined in the EIP]. Clients calling this function must replace the `\\{id\\}` substring with the actual token type ID."
      }
    },
    "version": 1
  },
  "userdoc": {
    "kind": "user",
    "methods": {
      "isTrustedForwarder(address)": {
        "notice": "return if the forwarder is trusted to forward relayed transactions to us. the forwarder is required to verify the sender's signature, and verify the call is not a replay."
      }
    },
    "version": 1
  }
}